:100000000C9463000C948B000C948B000C948B006C
:100010000C948B000C948B000C948B000C948B0034
:100020000C948B000C948B000C948B000C948B0024
:100030000C948B000C948B000C948B000C948B0014
:100040000C94AE030C948B000C94B3050C94010635
:100050000C948B000C948B000C948B000C948B00F4
:100060000C948B000C948B000000000024002700EF
:100070002A0000000000250028002B0000000000DE
:1000800023002600290004040404040404040202DA
:100090000202020203030303030301020408102007
:1000A0004080010204081020010204081020000012
:1000B0000007000201000003040600000000000029
:1000C0000000AA006D0711241FBECFEFD8E0DEBFED
:1000D000CDBF11E0A0E0B1E0ECEFF2E102C005908D
:1000E0000D92A634B107D9F712E0A6E4B1E001C041
:1000F0001D92A031B107E1F710E0C6ECD0E004C0DA
:100100002297FE010E947809C23CD107C9F70E94DC
:10011000C3070C947C090C9400000F931F938C016F
:100120006AE070E00E942D09FB0126E431E0E20F55
:10013000F31F808180935001C8016AE070E00E9443
:100140002D09280F391FF9018081809351011F91DA
:100150000F9108959091240190934601809125017B
:100160008093470180912601809348018091270167
:10017000809349018091280180934A01809129014F
:1001800080934B0180912A0180934C0180912B0137
:1001900080934D0180912C0180934E0180912D011F
:1001A00080934F01909350019093510108951F93B4
:1001B00087E068E040E02EEF0E94700586E00E9434
:1001C0001D0510E0892B09F411E087E068E040E0AC
:1001D0002DEF0E94700586E00E941D05892B11F00D
:1001E0001D7F01C0126087E068E040E02BEF0E94B5
:1001F000700586E00E941D05892B11F01B7F01C050
:10020000146087E068E040E027EF0E94700586E018
:100210000E941D05892B11F0177F01C0186087E02F
:1002200068E040E02FEE0E94700586E00E941D0508
:10023000892B11F01F7E01C0106187E068E040E06B
:100240002FED0E94700586E00E941D05892B11F09C
:100250001F7D01C0106287E068E040E02FEB0E9444
:10026000700586E00E941D05892B11F01F7B01C0DF
:10027000106487E068E040E02FE70E94700586E0A8
:100280000E941D05892B19F0812F8F7702C0812FC5
:1002900080681F9108951F93CF93DF9310925401AC
:1002A000109253010E94D700182F843021F410922D
:1002B00034011092330180915901181709F4AAC032
:1002C000103109F479C0113138F4143009F46FC0D9
:1002D000183009F099C01CC0143431F0143851F0B2
:1002E000103209F091C07DC080912F0190913001B2
:1002F000019609C080912F019091300182309105C3
:100300000CF488C001979093300180932F0182C034
:100310008091330190913401019709F07BC090E006
:1003200080915201882309F491E0909352018091C9
:100330005C01882361F083E161E00E94C9046CEBF9
:1003400072E080E090E00E94F60383E140C08EEE10
:1003500091E060E071E00E94FB0864EF71E080E0F2
:1003600090E00E94F60381E160E00E94C90464EF1E
:1003700071E080E090E00E94F60381E161E00E947C
:10038000C90464EF71E080E090E00E94F60381E12F
:1003900060E00E94C90481E080935C018CE060E031
:1003A0000E94C9048CE061E00E94C90433C010922D
:1003B0003401109233012EC081E161E00E94C90432
:1003C0006CEB72E080E090E00E94F60381E160E077
:1003D0000E94C9046CEB72E080E090E00E94F6039A
:1003E00019C08BE061E00E94C90468EC70E080E015
:1003F00090E00E94F6038BE060E00E94C90468EC84
:1004000070E080E090E0EACF81E090E090933401EA
:1004100080933301109359018091550190915601B9
:1004200002970CF4A9C010925601109255018091C8
:10043000330190913401009721F0019709F09CC09D
:1004400018C087EF80932E0180912F019091300189
:100450000E948D0080915201882341F480912F01E8
:1004600090913001909332018093310110925B01A1
:1004700083C080915B01882311F080E801C08DEF7B
:1004800080932E0180915201882309F46FC08091DE
:100490005701909158018230910514F48DEB04C0FE
:1004A0008230910521F48DED80932E0108C00397D1
:1004B00011F48DEEF9CF10925801109257018091EE
:1004C00057019091580101969093580180935701DC
:1004D00082E00E941D05EC018EEE91E0BE014AE033
:1004E00050E00E94DC08209791F580915A018130FC
:1004F00071F580935C0180913101909132010197F7
:1005000090933201809331018CE060E00E94C90435
:1005100068EE73E080E090E00E94F60383E161E022
:100520000E94C9046CEB72E080E090E00E94F60348
:1005300083E160E00E94C9046CEB72E080E090E02F
:100540000E94F6038CE061E00E94C90402C0109290
:100550005C01C0935A018091310190913201892B45
:1005600029F41092520181E080935B018091310166
:10057000909132010E948D00809155019091560119
:1005800001969093560180935501DF91CF911F9171
:1005900008958091530190915401039711F40E94A2
:1005A0004B018AE00E941D05019721F48BE061E078
:1005B0000E94C90487E068E040E020912E010E947B
:1005C000700585E060E00E94C90483E061E00E945C
:1005D000C90484E061E00E94C90464E070E080E046
:1005E00090E00E94F60385E061E00E94C90483E088
:1005F00061E00E94C90484E061E00E94C90487E0D0
:1006000068E040E0209150010E94700585E061E0C3
:100610000E94C90483E060E00E94C90484E061E0B4
:100620000E94C90464E070E080E090E00E94F6035C
:1006300085E061E00E94C90483E061E00E94C90492
:1006400084E061E00E94C90487E068E040E0209116
:1006500051010E94700585E061E00E94C90483E0B9
:1006600061E00E94C90484E060E00E94C90464E083
:1006700070E080E090E00E94F60385E061E00E9477
:10068000C90483E061E00E94C90484E061E00E9443
:10069000C9048091530190915401019690935401A3
:1006A0008093530108950F931F9388E061E00E94A7
:1006B0008A0487E061E00E948A048AE061E00E9487
:1006C0008A0485E061E00E948A0483E061E00E9480
:1006D0008A0484E061E00E948A0486E060E00E946F
:1006E0008A048CE061E00E948A0482E060E00E945B
:1006F0008A048BE061E00E948A048AE060E00E9444
:100700008A0481E161E10E948A0482E162E10E943F
:100710008A0483E163E10E948A0481E160E00E942F
:10072000C90482E160E00E94C90483E160E00E94A4
:10073000C9048CE061E00E94C9040EEE11E0C8011A
:1007400040E855E260E070E00E943C06C8016FE0BE
:1007500071E00E94FB081F910F9108951F920F9264
:100760000FB60F9211242F933F938F939F93AF93C4
:10077000BF938091610190916201A0916301B0915A
:100780006401309165010196A11DB11D232F2D5FDC
:100790002D3720F02D570196A11DB11D2093650125
:1007A0008093610190936201A0936301B09364010F
:1007B00080915D0190915E01A0915F01B091600117
:1007C0000196A11DB11D80935D0190935E01A093E0
:1007D0005F01B0936001BF91AF919F918F913F9165
:1007E0002F910F900FBE0F901F9018959B01AC0199
:1007F0007FB7F89480915D0190915E01A0915F01B7
:10080000B091600166B5A89B05C06F3F19F00196D5
:10081000A11DB11D7FBFBA2FA92F982F8827860F42
:10082000911DA11DB11D62E0880F991FAA1FBB1F5A
:100830006A95D1F7BC012DC0FFB7F89480915D0196
:1008400090915E01A0915F01B0916001E6B5A89B17
:1008500005C0EF3F19F00196A11DB11DFFBFBA2FD2
:10086000A92F982F88278E0F911DA11DB11DE2E0A1
:10087000880F991FAA1FBB1FEA95D1F7861B970BFC
:10088000885E9340C8F2215030404040504068514B
:100890007C4F211531054105510571F60895789475
:1008A00084B5826084BD84B5816084BD85B5826075
:1008B00085BD85B5816085BDEEE6F0E08081816013
:1008C0008083E1E8F0E01082808182608083808113
:1008D00081608083E0E8F0E0808181608083E1EBEB
:1008E000F0E0808184608083E0EBF0E080818160D3
:1008F0008083EAE7F0E08081846080838081826089
:100900008083808181608083808180688083109271
:10091000C1000895CF93DF93482F50E0CA01865657
:100920009F4FFC0134914A575F4FFA01849188230D
:1009300069F190E0880F991FFC01E859FF4FA591DC
:10094000B491FC01EE58FF4FC591D491662351F448
:100950002FB7F8948C91932F909589238C9388814D
:1009600089230BC0623061F42FB7F8948C91932FD8
:10097000909589238C938881832B88832FBF06C011
:100980009FB7F8948C91832B8C939FBFDF91CF916D
:100990000895482F50E0CA0182559F4FFC012491D1
:1009A000CA0186569F4FFC0194914A575F4FFA0146
:1009B0003491332309F440C0222351F1233071F0E4
:1009C000243028F42130A1F0223011F514C0263053
:1009D000B1F02730C1F02430D9F404C080918000F8
:1009E0008F7703C0809180008F7D8093800010C03E
:1009F00084B58F7702C084B58F7D84BD09C0809196
:100A0000B0008F7703C08091B0008F7D8093B000DD
:100A1000E32FF0E0EE0FFF1FEE58FF4FA591B491CA
:100A20002FB7F894662321F48C919095892302C006
:100A30008C91892B8C932FBF0895682F70E0CB0188
:100A400082559F4FFC012491CB0186569F4FFC019C
:100A500044916A577F4FFB019491992319F420E048
:100A600030E03CC0222351F1233071F0243028F4CF
:100A70002130A1F0223011F514C02630B1F027301A
:100A8000C1F02430D9F404C0809180008F7703C076
:100A9000809180008F7D8093800010C084B58F7717
:100AA00002C084B58F7D84BD09C08091B0008F776E
:100AB00003C08091B0008F7D8093B000892F90E0BB
:100AC000880F991F84589F4FFC01A591B4918C9178
:100AD00020E030E0842311F021E030E0C9010895E6
:100AE000BF92CF92DF92EF92FF920F931F93CF931B
:100AF000DF93E82EF62EB42EC7E0D0E0022F10E0F0
:100B000087E0C82ED12CBB2059F4B6016C1B7D0B9D
:100B1000C80102C0959587956A95E2F7BC0107C0A8
:100B2000B8010C2E02C0759567950A94E2F76170C2
:100B30008E2D0E94C9048F2D61E00E94C9048F2D63
:100B400060E00E94C90421979FEFCF3FD907D9F6F3
:100B5000DF91CF911F910F91FF90EF90DF90CF9099
:100B6000BF90089508951F920F920FB60F9211240F
:100B70002F933F934F938F939F93EF93FF93809186
:100B8000C00082FD1DC04091C6002091A601309199
:100B9000A7012F5F3F4F2F7330708091A801909174
:100BA000A9012817390771F0E091A601F091A7017A
:100BB000EA59FE4F40833093A7012093A60102C05B
:100BC0008091C600FF91EF919F918F914F913F913E
:100BD0002F910F900FBE0F901F901895E091FA0182
:100BE000F091FB01E05CFF4F819191912081318177
:100BF000821B930B8F739070892B11F00E94B205AA
:100C000008951F920F920FB60F9211242F933F93C6
:100C10008F939F93EF93FF932091EA013091EB0123
:100C20008091EC019091ED012817390731F4809102
:100C3000C1008F7D8093C10014C0E091EC01F09160
:100C4000ED01E655FE4F20818091EC019091ED0180
:100C500001968F7390709093ED018093EC01209337
:100C6000C600FF91EF919F918F913F912F910F902F
:100C70000FBE0F901F901895AF92BF92DF92EF9228
:100C8000FF920F931F93CF93DF93EC017A018B01B7
:100C9000DD24403081EE580780E0680780E0780767
:100CA00011F0DD24D39491E0A92EB12CEC89FD89BB
:100CB000DD2069F0C50108A002C0880F991F0A94C1
:100CC000E2F7808360E079E08DE390E005C0108278
:100CD00060E874E88EE190E0A80197010E94400965
:100CE00021503040404050405695479537952795C4
:100CF00080E12030380720F0DD2011F0DD24D6CF50
:100D0000E889F9893083EA89FB89208319A2EE8971
:100D1000FF89408121E030E0C9010C8C02C0880FBE
:100D2000991F0A94E2F7482B4083EE89FF8940819E
:100D3000C9010D8C02C0880F991F0A94E2F7482B55
:100D40004083EE89FF894081C9010E8C02C0880F63
:100D5000991F0A94E2F7482B4083EE89FF8980812E
:100D60000F8C02C0220F331F0A94E2F7209528232C
:100D70002083DF91CF911F910F91FF90EF90DF9033
:100D8000BF90AF900895DC011C96ED91FC911D97EA
:100D9000E05CFF4F2191319180819181281B390BBB
:100DA0002F733070C9010895DC011C96ED91FC9100
:100DB0001D97E05CFF4F20813181E054F040DF015E
:100DC000AE5BBF4F8D919C9111972817390719F48D
:100DD0002FEF3FEF07C08D919C91E80FF91F8081A5
:100DE000282F30E0C9010895DC011C96ED91FC919B
:100DF0001D97E05CFF4F20813181E054F040DF011E
:100E0000AE5BBF4F8D919C9111972817390719F44C
:100E10002FEF3FEF10C08D919C911197E80FF91FB4
:100E200020818D919C91119701968F7390701196EE
:100E30009C938E9330E0C9010895DC0191968C91CA
:100E40009197882339F05496ED91FC9155978081C4
:100E500086FFF9CF91961C920895CF93DF93EC0112
:100E6000EE85FF85E05CFF4F20813181E054F0404A
:100E70002F5F3F4F2F733070DF01AE5BBF4F8D91FF
:100E80009C91119728173907D1F3E05CFF4F8081BF
:100E90009181E054F040E80FF91F6083EE85FF85F3
:100EA000E05CFF4F31832083EE89FF89208181E060
:100EB00090E00F8C02C0880F991F0A94E2F7282B4C
:100EC000208381E089A3EC89FD898081806480830F
:100ED00081E090E0DF91CF9108951092F10110929E
:100EE000F00188EE93E0A0E0B0E08093F2019093EF
:100EF000F301A093F401B093F50189E391E090939D
:100F0000EF018093EE0186E691E09093FB018093E0
:100F1000FA018AEA91E09093FD018093FC0185EC4F
:100F200090E09093FF018093FE0184EC90E0909319
:100F300001028093000280EC90E090930302809382
:100F4000020281EC90E0909305028093040282EC0F
:100F500090E0909307028093060286EC90E09093D5
:100F600009028093080284E080930A0283E0809360
:100F70000B0287E080930C0285E080930D0281E0F4
:100F800080930E020895CF93DF930E944F040E9436
:100F90005303CEEED5E00E94C9022097E1F30E94F0
:100FA000EE05F9CFCF92DF92EF92FF920F931F934E
:100FB000CF93DF937C016B018A01C0E0D0E00FC0CA
:100FC000D6016D916D01D701ED91FC910190F081F9
:100FD000E02DC7010995C80FD91F01501040011518
:100FE000110571F7CE01DF91CF911F910F91FF9005
:100FF000EF90DF90CF900895EF92FF920F931F93A1
:101000008C01DC01ED91FC910190F081E02D6DE00F
:1010100009957C01D801ED91FC910190F081E02DC2
:10102000C8016AE009959C012E0D3F1DC9011F9161
:101030000F91FF90EF900895CF93DF93EC0161152E
:10104000710519F420E030E00FC0DB010D900020A5
:10105000E9F71197A61BB70BE881F9810280F381AC
:10106000E02DAD0109959C01C901DF91CF91089553
:101070004F925F927F928F929F92AF92BF92CF9248
:10108000DF92EF92FF920F931F93DF93CF93CDB731
:10109000DEB7A1970FB6F894DEBF0FBECDBF2C010F
:1010A000742ECB01223008F42AE019A231E2C32EBB
:1010B000D12CCC0EDD1E822E9924AA24BB24672DB0
:1010C000752FA50194010E94400979018A01C80188
:1010D000B701A50194010E940E09472D461B0894F3
:1010E000C108D1084A3014F4405D01C0495CF601E2
:1010F0004083E114F1040105110521F07E2C5F2DE0
:10110000C801DDCFC201B6010E941C08A1960FB62E
:10111000F894DEBF0FBECDBFCF91DF911F910F912D
:10112000FF90EF90DF90CF90BF90AF909F908F9007
:101130007F905F904F900895CF92DF92EF92FF9251
:101140000F931F93CF93DF93EC016A017B0121156D
:10115000310541F4E881F9810190F081E02D642F9F
:1011600009951FC02A303105D1F477FF17C0E881F7
:10117000F9810190F081E02D6DE209958C01442701
:101180005527BA014C195D096E097F09CE012AE085
:101190000E9438089801280F391F04C02AE00E94D5
:1011A00038089C01C901DF91CF911F910F91FF90E9
:1011B000EF90DF90CF900895CF92DF92EF92FF9261
:1011C0000F931F936C017B019A010027F7FC009598
:1011D000102FB801A7010E949C088C01C6010E9433
:1011E000FC07080F191FC8011F910F91FF90EF9086
:1011F000DF90CF900895EF92FF920F931F937C01A1
:101200000E941C088C01C7010E94FC07080F191FCF
:10121000C8011F910F91FF90EF900895629FD00138
:10122000739FF001829FE00DF11D649FE00DF11DA1
:10123000929FF00D839FF00D749FF00D659FF00D50
:101240009927729FB00DE11DF91F639FB00DE11D3D
:10125000F91FBD01CF011124089597FB092E072620
:101260000AD077FD04D02ED006D000201AF4709555
:1012700061957F4F0895F6F7909581959F4F08955A
:10128000A1E21A2EAA1BBB1BFD010DC0AA1FBB1F8A
:10129000EE1FFF1FA217B307E407F50720F0A21BFC
:1012A000B30BE40BF50B661F771F881F991F1A9469
:1012B00069F760957095809590959B01AC01BD0193
:1012C000CF010895AA1BBB1B51E107C0AA1FBB1F7A
:1012D000A617B70710F0A61BB70B881F991F5A95C2
:1012E000A9F780959095BC01CD010895EE0FFF1FE1
:0C12F0000590F491E02D0994F894FFCFD4
:1012FC005475726E696E67204C4344204F4E00410A
:10130C0075746F6D61746963204469736857617398
:10131C0068657200039F250D9949411F0109FF0162
:10132C000001000100000000002D07D207C306F4E5
:06133C0006D4061D0700A7
:00000001FF
